:100000000C9464010C94AB010C94AB010C94AB0107
:100010000C94AB010C94AB010C94AB010C94AB01B0
:100020000C94AB010C94AB010C942A0C0C94FC0CBA
:100030000C946E190C94AB010C94AB010C94AB01B5
:100040000C94AB010C94AB010C94AB010C94AB0180
:100050000C94AB010C94D6190C94AB010C94AB012D
:100060000C94AB010C94AB010C94AB010C94AB0160
:100070000C94AB010C94AB010C94AB010C94AB0150
:100080000C94AB010C94AB010C94AB010C94AB0140
:100090000C94AB010C94AB010C94AB010C94AB0130
:1000A0000C94AB010C94AB010C94AB01690D8B0D5E
:1000B000790E8B0D790ED00DF30D790E480E5B0E77
:1000C000C210C210F110F1104D124D124D124D120E
:1000D00027114D12D711D7113E124D124D12471252
:1000E000E411E411E411E411E411E411E411E41168
:1000F000E411E411E411E411E411E411E411E41158
:10010000F61103120A1211121B1201E1010B020B6C
:1001100002E1011202120107020701120212011587
:100120000215012C022C000030003000300030009D
:10013000300000003000300030003000300030006F
:10014000300030003000300030003000300030002F
:10015000300030003000300030003000300030001F
:10016000300030003000300030003000000030003F
:10017000300030000000300000003000300030005F
:10018000000030000000300030003000300030004F
:10019000000030003000300030003000300030000F
:1001A00030003000300030003000300030003000CF
:1001B00030003000300030003000300030003000BF
:1001C00030003000300030003000300030000016C9
:1001D000034500720067006F0044006F0078002044
:1001E0000045005A00000016034500720067006FCA
:1001F0000044006F007800200045005A0000000411
:1002000003090409023B00020100A0FA09040000EE
:100210000103010100092111010001223F0007052E
:10022000810308000A0904010001030000000921FC
:10023000110100012239000705820310000112019B
:10024000100100000008EDFE07130100010200018B
:1002500005010906A101050719E029E71500250197
:100260009508750181020508190129059505750193
:100270009102950175039101050719002977150071
:100280002501957875018102C005010906A10105C6
:100290000719E029E71500250195087501810295E8
:1002A0000175088101050819012905950575019158
:1002B000029501750391010507190029FF15002515
:1002C000FF950675088100C011241FBECFEFDAE04C
:1002D000DEBFCDBF04B603FE27C08091CC01909154
:1002E000CD01A091CE01B091CF018730904BA740B6
:1002F000B04BD1F41092CC011092CD011092CE01EE
:100300001092CF0114BE84B7877F84BF0FB6F894D4
:10031000A8958091600088618093600010926000D1
:100320000FBEE0E0FFE3099511E0A0E0B1E0E0E8F6
:10033000F5E302C005900D92A031B107D9F721E095
:10034000A0E1B1E001C01D92AC3CB207E1F70E9410
:100350006E090C94BE1A0C9400000F931F93CF9358
:10036000DF931F92CDB7DEB78C0180911001909181
:10037000110169830E94AC199C016981662319F0FF
:1003800080E090E024C056985E9825982D98269895
:100390002E9827982F98F8018281882389F320FDD1
:1003A00002C0259A2D9AC90163E070E00E946E1A7E
:1003B000892B11F4269A2E9AC90165E070E00E94FB
:1003C0006E1A892B11F4279A2F9A8AE091E00F90E8
:1003D000DF91CF911F910F9108950E94A0199093E2
:1003E000110180931001089508950C94F40156981A
:1003F0005E9825982D9826982E9827982F988FEFFD
:1004000090E0909389008093880090938B00809374
:100410008A0090938D0080938C00259A2D9A2FEF5F
:1004200080E792E0215080409040E1F700C000005A
:10043000269A2E9A2FEF80E792E02150804090403C
:10044000E1F700C00000279A2F9A2FEF80E792E093
:10045000215080409040E1F700C0000025982D9881
:100460002FEF80E792E0215080409040E1F700C0FC
:10047000000026982E982FEF80E792E021508040D0
:100480009040E1F700C0000027982F9856985E989A
:1004900025982D9826982E9827982F98089589EAC0
:1004A0008093800089E08093810024982C983F9865
:1004B0008AB18F748AB96E98479A8BB1806B8BB969
:1004C000769A0E94F7010C94ED0180E2809300017E
:1004D0008091120181110EC00E94B40281E08093CC
:1004E00012012FEF83ED90E3215080409040E1F71F
:1004F00000C0000080E40E94BA02809300018111D4
:100500002EC00E94E40280930001811128C00E9445
:10051000E40280930001811122C08FE30E94E40273
:100520008093000181111BC00E94DC0280E40E94C4
:10053000BA0280930001811112C08CE00E94E40293
:100540008093000181110BC00E94E402809300019E
:10055000811105C08FE30E94E402809300010E9494
:10056000DC028091000108951092B9008AE0809326
:10057000B800089594EA9093BC009091BC0097FF56
:10058000FCCF9091B900987F983021F0903111F014
:1005900081E008958093BB0084E88093BC00809143
:1005A000BC0087FFFCCF8091B900887F883111F0B3
:1005B000803471F780E0089584E98093BC008091D5
:1005C000BC0084FDFCCF08958093BB0084E8809339
:1005D000BC008091BC0087FFFCCF9091B900987F50
:1005E00081E0983209F480E0089584E88093BC00AB
:1005F0008091BC0087FFFCCF8091BB000895809163
:100600000001811115C080E40E94BA0280930001AC
:1006100081110CC082E10E94E402809300018111EB
:1006200005C08FEF0E94E402809300010E94DC026B
:1006300084B1807F84B985B1807F85B98AB1837F99
:100640008AB98BB1837F8BB93E98469808950E94F2
:100650006502809300010E94FF0280B38C7080BB12
:1006600081B3836F81BBA4E1B1E0E2E2F1E08EE00F
:100670008E0F11921D928E13FCCF0C944F02BF92DD
:10068000CF92DF92EF92FF920F931F93CF93DF935E
:1006900080910001882379F0809113018F5F80930E
:1006A0001301811108C00E9465028093000181112D
:1006B00002C00E94F70104E111E0C0E0D0E0DD24B7
:1006C000D39482E0C82EEE24E394F12CC730D105F8
:1006D00000F580910001811164C080E40E94BA029B
:1006E00080930001811112C082E10E94E402809394
:1006F000000181110BC0C7010C2E01C0880F0A94A4
:10070000EAF780950E94E402809300010E94DC02D7
:1007100048C0CA30A1F028F4C83059F0C93061F09F
:1007200005C0CC3089F070F0CD3089F0209A28983F
:1007300010C0219A29980DC0229A2A980AC0239A9B
:100740002B9807C0529A01C0539A5B9802C03E9AF8
:10075000469890EA9A95F1F79FB1799902C082E0A4
:1007600001C080E091709D25982B7C9902C084E0A7
:1007700001C080E0892B7D9902C038E001C030E0E3
:10078000832B7E9902C020E101C020E0822B9FB123
:100790009095991F9927991F9295990F907E892B73
:1007A0000FC080910001811149C080E40E94BA020B
:1007B00080930001882379F1B12C0E94DC028B2DFB
:1007C000F8019081981719F08083C09201010E946E
:1007D000FF0221960F5F1F4FCE30D10509F076CF73
:1007E00080910101882361F1815080930101882368
:1007F00039F08FE99FE00197F1F700C0000020C0B9
:10080000A2E2B1E0E4E1F1E0CF01825F91919D933A
:100810008E13FCCF15C083E10E94E4028093000197
:100820008111CACF81E40E94BA0280930001811134
:10083000C3CF0E94F502B82EB094BFCF80E0C0CFE6
:100840000E94F50181E0DF91CF911F910F91FF9000
:10085000EF90DF90CF90BF900895E82FF0E0EE5D2D
:10086000FE4F8081089508950F931F93CF93DF93D8
:10087000C2E2D1E010E00C2F025F899190E00E946B
:100880002019180F0C13F9CF812FDF91CF911F91F1
:100890000F91089581E0089508950F931F93CF93CA
:1008A000DF938C01FC01C081D181CE010E94A5178C
:1008B000BE010E94F004EC01F8018281882309F452
:1008C0004AC080913B0181111FC0C431F0E5DF07B0
:1008D00009F051C00E944C0481E080933B010E94CA
:1008E000A01990933A01809339011092320110922D
:1008F000340110923301109236011092350110929A
:1009000038011092370165C08091390190913A0108
:100910000E94AC19883C910570F480913201E82F57
:10092000F0E0EE0FFF1FED5CFE4FD183C0838F5FC1
:10093000809332014EC0C43880E5D80721F0C53815
:10094000D04501F13AC0F8018281882341F010922C
:10095000300182E01EC0C438E0E5DE0759F5809121
:100960003001811106C086E20E94C10F86E20E941A
:10097000551082E01CC0C438F0E5DF0741F3C538EC
:10098000D045D9F4F8018281882331F010923101E9
:1009900080E20E947D101DC080913101811106C04E
:1009A00087E20E94C10F87E20E94551080E20E94F8
:1009B00084100FC0C538D04529F381E08093300101
:1009C00080933101C801DF91CF911F910F910C9459
:1009D0004A0480E0DF91CF911F910F91089508950F
:1009E00096E0799FF001112494E5899FE00DF11DB7
:1009F0001124E60FF11DEE0FFF1FE95DFE4F8591FB
:100A000094910895880F991FFC01E955F040859154
:100A100094910895880F991FFC01E95DFE4F85911F
:100A2000949108950F931F93CF93DF93EC01811559
:100A3000904350F5C11580E2D80708F0C3C0CB3B06
:100A4000D10590F4C83AD10508F06AC0C53AD1057D
:100A500008F05BC0C430D10508F0D0C1219709F07F
:100A6000CAC101E010E00AC2CF3FD10511F008F081
:100A7000C5C1C03FD10508F0A2C0CE01805E91097A
:100A8000089708F4BBC1B7C1C13090E5D90709F494
:100A9000A2C020F5C0318FE4D80770F4C11590E4EE
:100AA000D90708F094C0C11521E3D20708F0A3C10B
:100AB000DD278E01106CE2C1C115D04509F09BC144
:100AC0000E94AC128FEF94E32CE0815090402040C4
:100AD000E1F700C000000E94FB19D0C1C11597E5E5
:100AE000D90758F4C03121E5D20708F01CC1C43140
:100AF00080E5D80708F475C07EC1CE0190578115F6
:100B0000904108F078C1DF7073C1C53AD10509F48E
:100B100077C1C63AD10509F076C102E810E4AEC14A
:100B2000C83AD10509F472C1C93AD10509F471C1B5
:100B3000CA3AD10509F470C1CB3AD10509F46FC1A5
:100B4000CC3AD10509F46EC1CD3AD10509F46DC195
:100B5000C03BD10509F46CC1CE3AD10509F46BC193
:100B6000CF3AD10509F46AC1C13BD10509F469C185
:100B7000C23BD10509F468C1C33BD10509F467C183
:100B8000C43BD10509F466C1C53BD10509F465C173
:100B9000C63BD10509F464C1C73BD10509F463C163
:100BA000C83BD10509F462C1C93BD10509F461C153
:100BB000CA3BD10509F460C100E014E45FC18E01B5
:100BC00010655CC1CE019F700E940A0558C1DF709C
:100BD0008E01106A53C18091B80181608093B80181
:100BE0004DC10E94521A811102C00E94381A0E94FF
:100BF000651A90E09093CC018093CB01C23080E5E0
:100C0000D80721F48091CB01816086C0C43090E583
:100C1000D90721F48091CB0182607EC0C63020E5E7
:100C2000D20721F48091CB01846076C0C83080E582
:100C3000D80719F48091CB0127C0CA3090E5D907B5
:100C400021F48091CB01806167C0CC3020E5D207D0
:100C500021F48091CB0180625FC0CE3080E5D8075F
:100C600021F48091CB01806457C0C03190E5D90751
:100C700021F48091CB0180684FC0C23120E5D207BA
:100C800029F48091CB018460886046C0C33080E540
:100C9000D80721F48091CB018E7F3EC0C53090E50E
:100CA000D90721F48091CB018D7F36C0C73020E574
:100CB000D20721F48091CB018B7F2EC0C93080E513
:100CC000D80719F48091CB0126C0CB3090E5D90725
:100CD00021F48091CB018F7E1FC0CD3020E5D2075B
:100CE00021F48091CB018F7D17C0CF3080E5D807EC
:100CF00021F48091CB018F7B0FC0C13190E5D907E2
:100D000021F48091CB018F7707C0C331D04531F4F6
:100D10008091CB018B7F877F8093CB018091CB012A
:100D20000E94691AABC08D2F99278F709927813047
:100D30009105D9F49E012370332702C0880F991FB3
:100D40002A95E2F79C688E0144E0000F111F4A9536
:100D5000E1F700271370802B912B53E0CC0FDD1FA0
:100D60005A95E1F7C076DD272FC08230910531F426
:100D7000DC2FCC278E01016F106A80C08330910573
:100D800069F4CE018370992701E010E002C0000FE2
:100D9000111F8A95E2F7C8019C680FC08430910545
:100DA000B9F4CE018370992701E010E002C0000F72
:100DB000111F8A95E2F7C8019A6823E0CC0FDD1F66
:100DC0002A95E1F7C07ED7708C010C2B1D2B56C0E5
:100DD0008530910531F4DC2FCC278E01046F106A29
:100DE0004DC0069709F04AC0CF71DD27DC2FCC2714
:100DF0008E01106243C000E010E040C08E013EC092
:100E000001E810E43BC003E810E438C002EE14E44B
:100E100035C009EE14E432C00AEE14E42FC005EB2D
:100E200014E42CC006EB14E429C007EB14E426C03C
:100E30000CEC14E423C00DEC14E420C003E815E42A
:100E40001DC00AE815E41AC002E915E417C004E958
:100E500015E414C001E216E411C003E216E40EC06A
:100E600004E216E40BC005E216E408C006E216E44C
:100E700005C007E216E402C00AE216E4C801DF91E9
:100E8000CF911F910F91089596E0799FF001112461
:100E900094E5899FE00DF11D1124E60FF11DEE0F81
:100EA000FF1FE95DFE4F85919491803E9105E0F42E
:100EB000803C910558F58133910509F46FC048F4E1
:100EC0008932910509F463C08A32910509F46DC035
:100ED00072C089339105E9F082389105D1F08533EC
:100EE000910509F44DC067C0833E910581F138F446
:100EF000803E9105B9F0823E9105D9F05CC0863EF6
:100F0000910561F1873E9105A1F155C00E9402054E
:100F100008952091CB0120FD02C021FF4CC080EE3E
:100F200090E049C08091CB0180FFF9CF89E390E048
:100F300042C08091CB0182FF0EC08091CB0184FF23
:100F400003C080E090E037C083EE90E034C0809131
:100F5000CB0182FFF2CF82EE90E02DC08091CB01D9
:100F600083FF0BC08091CB0184FDEBCF87EE90E037
:100F700022C08091CB0183FFF5CF86EE90E01BC0AD
:100F80008091CB0185FF07C089E290E014C0809179
:100F9000CB0185FFF9CF85E390E00DC08091CB01B7
:100FA00086FF07C08AE290E006C08091CB0186FFF1
:100FB000F9CF81E390E00E941205089508950C9402
:100FC000DE0780914C0108950895CF93DF9300D000
:100FD0001F92CDB7DEB72091C201243021F523E066
:100FE00029839B838A8381E08093E9008FEF90912E
:100FF000E800815095FD06C095ED9A95F1F7000047
:101000008111F5CF8091E80085FF0DC040E050E0F0
:1010100063E070E0CE0101960E941A0A8091E80018
:101020008E778093E8000F900F900F90DF91CF9113
:101030000895CF93DF9300D01F92CDB7DEB72091F4
:10104000C201243021F522E029839B838A8381E039
:101050008093E9008FEF9091E800815095FD06C0E4
:1010600095ED9A95F1F700008111F5CF8091E80098
:1010700085FF0DC040E050E063E070E0CE010196D6
:101080000E941A0A8091E8008E778093E8000F9002
:101090000F900F90DF91CF910895CF93DF93209120
:1010A000C201243009F048C0EC0180910C01882372
:1010B000E1F080910D018823C1F082E08093E90086
:1010C0008FEF9091E800815095FD06C095E19A95CB
:1010D000F1F700008111F5CF8091E80085FF2CC069
:1010E00040E050E060E170E017C081E08093E900EB
:1010F0008FEF9091E800815095FD06C095ED9A958F
:10110000F1F700008111F5CF8091E80085FF14C050
:1011100040E050E068E070E0CE010E941A0A809141
:10112000E8008E778093E80080E1FE01ACE3B1E057
:1011300001900D928A95E1F7DF91CF91089580910A
:10114000C101811109C00E94AF0B0E940C0C80915B
:10115000E20084608093E20008951092C101089536
:10116000089508950C94681942E061EC81E00E94B2
:10117000290B42E161EC82E00C94290B8091C401BF
:10118000833009F453C030F4813071F0823009F4B7
:101190008CC008958A3009F478C08B3009F45EC0A1
:1011A000893009F09AC020C08091C301813A09F0CA
:1011B00094C08091E800877F8093E8008091C70108
:1011C0009091C801892B21F460E18CE391E003C088
:1011D00060E080E090E070E00E94650A8091E800A5
:1011E0008B778093E80008958091C301813209F0E4
:1011F00074C08091C7019091C801029708F06DC03A
:101200008091E800877F8093E8008091E80082FD6C
:1012100005C08091C2018111F8CF5FC08091F100BB
:1012200080934C018091E8008B7753C08091C3017B
:10123000813A09F052C08091C7019091C801892B71
:1012400009F04BC08091E800877F8093E80080918F
:10125000E80080FFFCCF80910C0136C08091C30173
:101260008132D9F58091C7019091C801892BA9F5E8
:101270008091E800877F8093E8000E945E0B809158
:10128000C50180930C010C94AC128091C301813292
:1012900021F58091E800877F8093E8000E945E0B33
:1012A0008091C60180934D0108958091C301813AD8
:1012B000A1F48091E800877F8093E8008091E800A6
:1012C00080FFFCCF80914D018093F1008091E80078
:1012D0008E778093E8000C945E0B089584B7877F27
:1012E00084BF0FB6F894A8958091600088618093C0
:1012F0006000109260000FBE90E080E80FB6F89496
:1013000080936100909361000FBE0E94F60E0E94D0
:10131000AF0B0E940C0C8091E20084608093E2008D
:1013200078940E94920E0E94F80E82E091E00E9452
:10133000AD0E8091C201853069F40E942C19809114
:10134000C0018823B1F30E945A19882391F30E94A7
:10135000040AEFCF0E94FE0EECCF292F3327233053
:101360003105C9F064F42130310581F022303105B6
:1013700009F042C08BE390E023E032E041C021322B
:101380003105F1F02232310549F136C082E190E0B9
:101390002EE332E035C099278130910541F082304B
:1013A000910541F0892B41F5EFEFF1E005C0E7EE43
:1013B000F1E002C0EFECF1E0849190E09F0120C0E9
:1013C000662339F06130C1F489E090E02EE232E02A
:1013D00017C089E090E025E132E012C0662339F0C1
:1013E000613051F489E390E020E532E009C08FE3F9
:1013F00090E029E832E004C080E090E020E030E0B6
:10140000FA0131832083089580E189BD82E189BD9D
:1014100009B400FEFDCF8091D8008F7D8093D80065
:101420008091E00082608093E0008091E00081FD87
:10143000FCCF0895CF92DF92EF92FF920F931F930C
:10144000CF93DF93EC018B016A010E947D0B811128
:1014500033C0C114D10439F0F60180819181081B99
:10146000190BC80FD91FE12CF12C0115110519F129
:101470008091E80085FD16C08091E8008E7780930A
:10148000E800C114D10449F0F60180819181E80E91
:10149000F91EF182E08285E00FC00E947D0B882357
:1014A00021F30AC089918093F10001501109FFEFE7
:1014B000EF1AFF0ADACF80E0DF91CF911F910F91F1
:1014C000FF90EF90DF90CF9008952091C901309167
:1014D000CA012617370748F06115710539F42091C4
:1014E000E8002E772093E80001C0B90140E06115C3
:1014F0007105A9F12091C201222309F443C02530CE
:1015000009F442C02091E80023FD40C02091E8008A
:1015100022FD32C02091E80020FFE9CF4091F30086
:101520002091F20030E0342BFC01CF0161157105F0
:1015300059F02830310540F481918093F1006150D9
:1015400071092F5F3F4FF1CF41E02830310509F09D
:1015500040E02091E8002E772093E800C8CF4111A9
:10156000C9CF0AC08091C201882361F0853061F043
:101570008091E80083FD0AC08091E80082FFF2CFED
:1015800080E0089582E0089583E0089581E0089561
:101590002091C9013091CA012617370748F061151B
:1015A000710539F42091E8002E772093E80001C0FE
:1015B000B901FC0120E06115710591F18091C20132
:1015C000882309F440C0853009F43FC08091E800C9
:1015D00083FD3DC08091E80082FD2FC08091E8002E
:1015E00080FFE9CF2091F3008091F20090E0922BF0
:1015F0006115710559F08830910540F424912093CC
:10160000F1003196615071090196F2CF21E00897FF
:1016100009F020E08091E8008E778093E800CBCF3E
:101620002111CCCF0AC08091C201882361F085309E
:1016300061F08091E80083FD0AC08091E80082FF9C
:10164000F2CF80E0089582E0089583E0089581E07C
:101650000895982F973058F59093E900981739F02E
:101660007091EC002091ED005091F00003C0242F08
:10167000762F50E021FF19C03091EB003E7F309370
:10168000EB003091ED003D7F3093ED003091EB00A9
:1016900031603093EB007093EC002093ED00509399
:1016A000F0002091EE0027FF07C09F5FD3CF8F701F
:1016B0008093E90081E0089580E008958091C3015E
:1016C00087FF11C08091E80082FD05C08091C201B2
:1016D0008111F8CF11C08091E8008B770BC0809109
:1016E000C201882349F08091E80080FFF8CF809103
:1016F000E8008E778093E80008952091E40030910F
:10170000E50095E64091EC00842F817040FF22C0F7
:101710008091E80080FD1CC08091C201882391F077
:10172000853091F08091EB0085FD10C04091E40080
:101730005091E5004217530729F39A01915011F790
:1017400084E0089582E0089583E0089581E008959B
:1017500080E008954091E80042FFDECF08950E94A6
:101760001D0C0E94250CE0EEF0E0808181608083FA
:10177000E8EDF0E080818F77808319BCA7EDB0E0C1
:101780008C918E7F8C9380818F7E80831092C1019B
:1017900008950F931F93CF93DF930E941D0C0E9417
:1017A000250CC8EDD0E088818F7788838881806898
:1017B000888388818F7D888319BC1092C201109222
:1017C000BE011092C0011092BF0100EE10E0F801BE
:1017D00080818B7F808388818160888342E060E0A4
:1017E00080E00E94290BE1EEF0E080818E7F808313
:1017F000E2EEF0E080818160808380818860808378
:10180000F80180818E7F8083888180618883DF9169
:10181000CF911F910F910895E8EDF0E080818F7EC8
:101820008083E7EDF0E080818160808384E082BF87
:1018300081E08093C1010C94C90BE8EDF0E0808158
:101840008E7F80831092E20008951092DA00109249
:10185000E10008951F920F920FB60F9211242F935B
:101860003F934F935F936F937F938F939F93AF9328
:10187000BF93EF93FF938091E10082FF0BC08091B3
:10188000E20082FF07C08091E1008B7F8093E1003E
:101890000E94910E8091DA0080FF1FC08091D800D5
:1018A00080FF1BC08091DA008E7F8093DA008091E8
:1018B000D90080FF0DC080E189BD82E189BD09B4F6
:1018C00000FEFDCF81E08093C2010E949F0805C009
:1018D00019BC1092C2010E94AD088091E10080FF06
:1018E00019C08091E20080FF15C08091E2008E7FD8
:1018F0008093E2008091E20080618093E200809119
:10190000D80080628093D80019BC85E08093C20122
:101910000E94B1088091E10084FF30C08091E20014
:1019200084FF2CC080E189BD82E189BD09B400FE3D
:10193000FDCF8091D8008F7D8093D8008091E10009
:101940008F7E8093E1008091E2008F7E8093E200A1
:101950008091E20081608093E2008091BE01882343
:1019600011F084E007C08091E30087FD02C081E0B0
:1019700001C083E08093C2010E94B2088091E1001F
:1019800083FF29C08091E20083FF25C08091E100A0
:10199000877F8093E10082E08093C2011092BE01B4
:1019A0008091E1008E7F8093E1008091E2008E7F44
:1019B0008093E2008091E20080618093E20042E047
:1019C00060E080E00E94290B8091F00088608093A5
:1019D000F0000E94B008FF91EF91BF91AF919F91ED
:1019E0008F917F916F915F914F913F912F910F90C8
:1019F0000FBE0F901F9018951F920F920FB60F9267
:101A000011242F933F934F935F936F937F938F9303
:101A10009F93AF93BF93CF93DF93EF93FF93C091C7
:101A2000E900CF708091EC00D82FD17080FDD0E814
:101A30001092E9008091F000877F8093F000789405
:101A40000E94400D1092E9008091F0008860809320
:101A5000F000CD2BCF70C093E900FF91EF91DF91A3
:101A6000CF91BF91AF919F918F917F916F915F9136
:101A70004F913F912F910F900FBE0F901F9018958F
:101A80001F93CF93DF93CDB7DEB7AA970FB6F89425
:101A9000DEBF0FBECDBFE3ECF1E088E08E0F90918A
:101AA000F10091938E13FBCF0E94BE088091E80055
:101AB00083FF1FC18091C3019091C401492F50E061
:101AC0004A30510508F015C1FA01EA5AFF4F0C944B
:101AD000821A803881F0823809F00BC18091C701E9
:101AE0008F708093E9008091EB0085FB882780F957
:101AF0001092E90006C08091BF019091C001911140
:101B000082609091E800977F9093E8008093F100C5
:101B10001092F100C8C0282F2D7F09F0EAC0882359
:101B200019F0823061F0E5C08091C501813009F083
:101B3000E0C0933009F080E08093C0012BC0809119
:101B4000C501811127C08091C7018F7009F4D1C0F0
:101B50008093E9002091EB0020FF1CC0933021F41A
:101B60008091EB00806214C09091EB0090619093A3
:101B7000EB0021E030E0A90102C0440F551F8A9517
:101B8000E2F74093EA001092EA008091EB0088604F
:101B90008093EB001092E9008091E800877F86C077
:101BA0008111A7C01091C5011F778091E300807853
:101BB000812B8093E3008091E800877F8093E80089
:101BC0000E945E0B8091E80080FFFCCF8091E300D3
:101BD00080688093E300111102C082E001C083E0BD
:101BE0008093C20186C08058823008F082C0809104
:101BF000C5019091C6018C3D53E0950779F583E0CE
:101C00008A838AE289834FB7F894DE01139620E035
:101C10003EE051E2E32FF0E050935700E49120FFC3
:101C200003C0E295EF703F5FEF708E2F90E0EA30D7
:101C300010F0C79601C0C0968D939D932F5F2431FD
:101C400049F74FBF8091E800877F8093E8006AE200
:101C500070E0CE0101960E94650A14C0AE014F5F8C
:101C60005F4F6091C7010E94AD09BC01892B09F447
:101C700040C09091E800977F9093E80089819A8115
:101C80000E94C80A8091E8008B778093E80031C0F9
:101C9000803879F58091E800877F8093E800809113
:101CA000BE018093F1008091E8008E778093E80078
:101CB0000E945E0B1EC081111CC09091C501923024
:101CC000C0F48091E800877F8093E8009093BE0184
:101CD0000E945E0B8091BE01811106C08091E300DD
:101CE00087FD02C081E001C084E08093C2010E94B0
:101CF000B4088091E80083FF0AC08091E800877FE4
:101D00008093E8008091EB0080628093EB00AA96BC
:101D10000FB6F894DEBF0FBECDBFDF91CF911F91FC
:101D200008950895CF938091C2018823A1F0C091B6
:101D3000E900CF709091EC00892F817090FD80E8D0
:101D4000C82B1092E9008091E80083FD0E94400DAD
:101D5000CF70C093E900CF91089590935301809381
:101D600052010895E0915201F0915301309721F012
:101D70000190F081E02D099480E00895E0915201F6
:101D8000F0915301309721F00280F381E02D099406
:101D9000089520915001309151018217930771F0FD
:101DA0009093510180935001E0915201F0915301C1
:101DB000309721F00680F781E02D09940895209155
:101DC0004E0130914F018217930771F090934F01AC
:101DD00080934E01E0915201F0915301309721F030
:101DE0000084F185E02D0994089508950C94F50E72
:101DF0000E9497190E9427030C941D1A9F92AF927C
:101E0000BF92CF92DF92EF92FF920F931F93CF93E7
:101E1000DF9300D000D000D0CDB7DEB70E943F03E3
:101E20000DE010E0AA24A394B12C902E802F0E94E4
:101E30002D0498012B5A3E4F6901F901F080F826D4
:101E4000A1F40150110988F78FEF89838A831B82DF
:101E50000E94A0198160782F9D838C8349815A81CB
:101E60006B818D810E94930F2FC09091B80191FFDB
:101E700004C08E830E9433048E8125E030E0A501EA
:101E8000022E01C0440F0A94EAF7E42E4F21C1F05C
:101E900029839A828E2191E009F490E09B830E942D
:101EA000A0198160782F9D838C8349815A816B8131
:101EB0008D810E94930FF6018081E826E08204C0A4
:101EC00021503109E0F6BDCF109154010E94B20EAD
:101ED0001817B9F00E94B20E8093540126960FB6DF
:101EE000F894DEBF0FBECDBFDF91CF911F910F9150
:101EF000FF90EF90DF90CF90BF90AF909F900C94A9
:101F0000DF0726960FB6F894DEBF0FBECDBFDF9178
:101F1000CF911F910F91FF90EF90DF90CF90BF90E6
:101F2000AF909F900895CF93DF93CDB7DEB72B97F7
:101F30000FB6F894DEBF0FBECDBF4F8358876987B9
:101F40007A878B87DE01119686E0FD0111928A95D2
:101F5000E9F785E0FE01379601900D928A95E1F749
:101F600049815A816B817C818D819E810E944A15B5
:101F70002B960FB6F894DEBF0FBECDBFDF91CF9189
:101F80000895882309F490C09CEF980F913A18F4B3
:101F90000E9424180DC090E2980F983058F4877072
:101FA00091E001C0990F8A95EAF7892F0E94AA183B
:101FB0000C94F1189BE5980F933070F4853A29F052
:101FC000863A31F083E890E005C081E890E002C0F5
:101FD00082E890E00C94C90E98E5980F933108F0D0
:101FE00063C0883A39F1893A41F18A3A49F18B3A2A
:101FF00051F18C3A59F18D3A61F1803B69F18E3A99
:1020000071F18F3A79F1813B81F1823B89F1833B18
:1020100091F1843B99F1853BA1F1863BA9F1873B86
:10202000B1F1883BB9F1893BC1F18A3BC9F180E04C
:1020300090E038C082EE90E035C089EE90E032C08A
:102040008AEE90E02FC085EB90E02CC086EB90E00C
:1020500029C087EB90E026C08CEC90E023C08DEC8B
:1020600090E020C083E891E01DC08AE891E01AC0AA
:1020700082E991E017C084E991E014C081E292E026
:1020800011C083E292E00EC084E292E00BC085E2D0
:1020900092E008C086E292E005C087E292E002C0CA
:1020A0008AE292E00C94DF0E0895882329F19CEFD8
:1020B000980F913A18F40E9466180DC090E2980F9C
:1020C000983058F4877091E001C0990F8A95EAF72B
:1020D000892F0E94B0180C94F1189BE5980F93304B
:1020E00020F480E090E00C94C90E885A833120F4EB
:1020F00080E090E00C94DF0E0895882321F00E9488
:10210000AA180C94F1180895882321F00E94B018A1
:102110000C94F11808957F928F929F92AF92BF9284
:10212000CF92DF92EF92FF920F931F93CF93DF93A3
:102130001F92CDB7DEB77C01C62E772EFC0115812C
:1021400012951F70028101110E94C7180E941D186C
:10215000882379F0002369F080E28C0D883048F004
:1021600082E00E9406180E941D1891E0D82ED92600
:1021700001C0D12CE72DE295EF70F0E0E05AFF4F5F
:102180000C94821A872D807F172D1F70882311F0E1
:102190001295107F002389F0112309F465C180E2B4
:1021A0008C0D883020F4812F0E94AA1803C0812F43
:1021B0000E94BA180E94F11857C18C2D0E94551028
:1021C000112309F46AC180E28C0D883020F4812F3C
:1021D0000E94B01803C0812F0E94C0180E94F118FD
:1021E0005CC1972D907F872D8F70903211F0829572
:1021F000807FCC2021F0F1E0CF16B1F01EC000238B
:1022000049F0112309F4E9C0113009F0E6C00E9439
:10221000DA1843C1112319F0113009F43EC1898342
:102220000E94DD188981DFC0002321F0123008F000
:1022300034C1D3C0111131C1D6C0002321F0112304
:1022400009F4CBC011C1112309F4CDC013C1872DEE
:10225000837009F052C0011120C18C2D82958695A2
:102260008770880F880F9C2D9F70892E912CA12C30
:10227000B12C082E04C0880C991CAA1CBB1C0A9403
:10228000D2F7C4FE14C00FE010E020E030E0B90146
:10229000A80104C0440F551F661F771F8A95D2F707
:1022A000CB01BA01609570958095909503C060E070
:1022B00070E0CB01272D26952695237030E0223043
:1022C000310569F02330310589F0682979298A2997
:1022D0009B292130310571F00E949216DEC06829D9
:1022E00079298A299B290E94AE16D7C00E9492168E
:1022F000C501B4010E947616D0C0002319F0872DC5
:10230000817001C08695882309F4C7C08C2D829501
:1023100086958770880F880F9C2D9F70892E912C31
:10232000A12CB12C082E04C0880C991CAA1CBB1C23
:102330000A94D2F7C4FE14C00FE010E020E030E0B1
:10234000B901A80104C0440F551F661F771F8A9565
:10235000D2F7CB01BA01609570958095909503C036
:1023600060E070E0CB01272D269526952370422F43
:1023700050E04230510569F04330510589F0682939
:1023800079298A299B294130510571F00E946C17E7
:1023900084C0682979298A299B290E9488177DC0D1
:1023A0000E946C17C501B4010E94501776C08C2D95
:1023B00090E0FC01E05EF109E531F10508F050C064
:1023C000E059FF4F0C94821A1C2D1F70872D8F71BE
:1023D000002331F00E94E916812F0E947D105DC01C
:1023E0000E940A17812F0E94841057C0002339F0E1
:1023F000111153C0872D8F710E942F174EC01230BC
:1024000008F04BC0F7CF002339F0872D8F710E9461
:10241000E91643C00023C9F3872D8F710E940A1764
:102420003CC0002329F0872D8F710E94D41635C03F
:102430000E94CA1632C0002351F0172D1F71812F40
:102440000E94E91663E0812F0E94FD1726C081E0FB
:102450000E940618123008F182E00E9406181DC082
:10246000002331F0112389F28C2D0E94C10F15C079
:10247000112391F28C2D0E9455100FC0472D4F70E3
:102480006C2DC7010E94AD010E94EE1506C0472DBC
:102490004F706C2DC7010E94EF04DD20F9F00E94FF
:1024A000F91780FD1BC0F70112820E94F3170E94EA
:1024B000E916C7010E947D120E94F3170F90DF9169
:1024C000CF911F910F91FF90EF90DF90CF90BF9031
:1024D000AF909F908F907F900C940A170F90DF9190
:1024E000CF911F910F91FF90EF90DF90CF90BF9011
:1024F000AF909F908F907F9008950F931F93CF93ED
:10250000DF93EC01888199812B813C81232BB9F0E9
:102510009F3F11F48F3F99F0CE010E944D04882314
:1025200071F0688179818A810E94EF178C010E9485
:10253000A4170E946B16B801CE010E948B10DF9188
:10254000CF911F910F9108950E94C7180E94D7182C
:102550000E949C180C94F1180E94B7180C94A412B5
:102560000E94E417292F22952F7030E02C3031057E
:102570004CF42A3031056CF42250310922303105F7
:10258000A8F407C02C30310569F02F30310551F027
:102590000DC0803F69F018F4803E40F409C0843FCC
:1025A00029F406C093FB882780F9089580E00895F8
:1025B00081E00895CF93DF9300D000D01F92CDB774
:1025C000DEB70F900F900F900F900F90DF91CF918B
:1025D0000895CF93DF9300D000D000D0CDB7DEB701
:1025E00026960FB6F894DEBF0FBECDBFDF91CF9118
:1025F00008951F93CF93DF93C091630116E08091FC
:102600006401C81799F0D0E01C9FF0011D9FF00DE8
:102610001124EB59FE4F4081518162817381848185
:1026200095810E94E9122196C770E9CFDF91CF9181
:102630001F910895409195015091960160919701E5
:10264000709198018091990190919A010C94E912EE
:1026500080919A0182958F7009F054C08091970102
:10266000882309F44FC080916301A09164016091B7
:102670009501709196014091980150919901B6E0B1
:102680008A1709F43FC090E041155105C1F17F3F21
:1026900011F46F3FA1F1B89FF001B99FF00D112423
:1026A000EB59FE4F218172132AC02081621327C08B
:1026B0002281211124C0238134812417350710F48D
:1026C00021503109241B350B283C3105C0F42091E1
:1026D0009A012F70206120939A0126E0289FF00133
:1026E000299FF00D1124E659FE4F80818F70806183
:1026F000808385E991E00E947D120C94F912019685
:102700008770BECF0895CF92DF92EF92FF920F9322
:102710001F93CF93DF93CDB7DEB762970FB6F894D0
:10272000DEBF0FBECDBF8C0185E0F801DE011D9636
:1027300001900D928A95E1F7D8014C9111965C9128
:10274000119712966C9112971396CD90DC90149776
:102750003091950170919601809198019091990125
:10276000009709F46BC17F3F19F43F3F09F466C13C
:10277000E0909701EE2009F4C0C020919A01C8169C
:10278000D90628F0F601E81BF90BCF0104C08095AB
:1027900090958C0D9D1DFF24F394883C910578F055
:1027A000F12C207F09F0C6C07C2DD98AC88A89897E
:1027B0000E94DA1285E991E00E947D12B1C0822F59
:1027C000807F09F046C0751314C0341312C0611124
:1027D00010C02F70206120939A010E941A1385E97E
:1027E00091E00E947D1280919A01D80115968C93F8
:1027F0002EC0CD2819F15F3F11F44F3FF9F0F62EAE
:1028000061111CC0809163012091640136E0821740
:1028100009F45AC090E0389FF001399FF00D11245F
:10282000EB59FE4F7181571306C07081471303C0E7
:102830007281711103C001968770E9CFF62E66236D
:1028400009F418C180919A01816080939A01F12C5A
:1028500011C1751308C0341306C0611104C0809102
:102860009A01D801C3C04D875E878D859E856A8B8E
:102870000E94B0126A898823E1F16623D1F1209188
:102880009A01822F82958F7090E0029774F0809168
:1028900095019091960198878F831986DB86CA8669
:1028A0002C87CE0107960E947D1286E0F801A5E9EB
:1028B000B1E001900D928A95E1F70E9428130E94E1
:1028C0001A13FF24F394D6C04D875E878D859E85AD
:1028D0000E94E417292F22952F7030E02230310515
:1028E0000CF0BCC09F7009F0B6C0805E883008F460
:1028F000C1C0C8010E947D12E4CFC816D90608F4F1
:1029000053C0F601E81BF90BCF01883C910508F490
:1029100050C0F12C7C2DD98AC88A89890E94DA128C
:10292000E5E9F1E086E0DF011D928A95E9F70E9472
:102930001A13A0C0751314C0341312C0611110C053
:1029400080919A01F8018583C8010E947D1286E07A
:10295000E5E9F1E0DF011D928A95E9F7FE2C8AC0D6
:102960004D875E878D859E856A8B0E94B0126A892D
:10297000882309F4BECF662309F4BBCF20919A01C6
:10298000822F82958F7090E002970CF48ECF809109
:102990009501909196019A8389831B82DD82CC8276
:1029A0002E83CE0101967FCF809590958C0D9D1D35
:1029B000ACCFF62E662309F49CCF75132EC03413CA
:1029C0002CC020919A0120FD1FC0822F82958F700C
:1029D000D9F0D80115962C9315978F3049F08F5F59
:1029E000982F9295907F822F8F70892B15968C93BC
:1029F000C8010E947D1286E0F801A5E9B1E00190CE
:102A00000D928A95E1F793CF86E0F801A5E9B1E050
:102A100001900D928A95E1F72DC04D875E878D85D7
:102A20009E850E94B012811140CF80919A018160F1
:102A300080939A01C8010E947D121CC0662309F48C
:102A400058CF4D875E878D859E850E94B012882362
:102A500009F44FCF2ACF811148CF0CC02430310563
:102A60000CF047CF9F7009F440CFF8019581907F1B
:102A700009F03BCF8F2D62960FB6F894DEBF0FBEE4
:102A8000CDBFDF91CF911F910F91FF90EF90DF901D
:102A9000CF9008951F93CF93DF93CDB7DEB72C97D8
:102AA0000FB6F894DEBF0FBECDBF4F83588769873E
:102AB0007A878B879C87CE0107960E948313882391
:102AC00069F08F8198852A853B85232BF1F19F3F03
:102AD00009F063C08F3F09F060C037C086E0FE0197
:102AE0003796DE01119601900D928A95E1F76F817C
:102AF0007885EA85FB85309741F17F3F11F46F3F80
:102B000021F12091640130E0C90101968770992775
:102B10004091630150E08417950709F447C0698329
:102B20007A83FD83EC8396E0929FD001939FB00D52
:102B30001124AB59BE4FFE01319601900D929A952A
:102B4000E1F7809364010E94F91216E0809163011D
:102B5000909164018917C1F1189FC00111248B590C
:102B60009E4F0E948313882379F1E09163011E9F99
:102B7000F0011124EB59FE4F408151816281738134
:102B8000848195810E94E9128091630190E0019611
:102B90008770992780936301D9CF4F8158856985C4
:102BA0007A858B859C850E94E912CFCF0E94AC125A
:102BB0001092640110926301E5E9F1E086E0DF0123
:102BC0001D928A95E9F7C1CF2C960FB6F894DEBF17
:102BD0000FBECDBFDF91CF911F910895EF92FF926D
:102BE0000F931F93CF93DF938C01892B09F46CC053
:102BF000F12CEE24E394E8012196F80184918437C6
:102C000040F4843008F051C0813081F0823019F1F5
:102C10005BC0853709F444C0A8F19CE7980F903752
:102C200008F052C08F770E94551041C00E5F1F4FB1
:102C3000FE01C49180E28C0F883048F4C7708E2D5D
:102C400001C0880FCA95EAF70E94CA1814C08C2FD9
:102C50000E94C10F2DC00E5F1F4FFE01C49180E284
:102C60008C0F883058F4C7708E2D01C0880FCA951C
:102C7000EAF70E94D0180E94F1181AC08C2F0E9407
:102C8000551016C00E5F1F4FFE01C491CC2381F07A
:102C90008FE99FE00197F1F700C00000C150F6CF27
:102CA0000E5F1F4FFE01F49003C00E94C10F8E0102
:102CB0008F2D882309F49FCFEFE9FFE03197F1F7DB
:102CC00000C000008150F5CFDF91CF911F910F918F
:102CD000FF90EF900895089560939F017093A00175
:102CE0008093A1019093A2010C94A4120F931F93BF
:102CF00000919F011091A0012091A1013091A201AA
:102D0000DC01CB01802B912BA22BB32B80939F0155
:102D10009093A001A093A101B093A2011F910F91E4
:102D20000C94A4120F931F9300919F011091A00186
:102D30002091A1013091A201DC01CB0180239123DC
:102D4000A223B32380939F019093A001A093A1019C
:102D5000B093A2011F910F910C94A4120F931F9393
:102D600000919F011091A0012091A1013091A20139
:102D7000DC01CB0180279127A227B32780939F01F5
:102D80009093A001A093A101B093A2011F910F9174
:102D90000C94A41210929B0110929C0110929D0120
:102DA00010929E010C94A41241E050E060E070E0AB
:102DB00004C0440F551F661F771F8A95D2F74093B2
:102DC0009B0150939C0160939D0170939E010C9414
:102DD000A41241E050E060E070E004C0440F551FD1
:102DE000661F771F8A95D2F780919B0190919C0175
:102DF000A0919D01B0919E01482B592B6A2B7B2BF2
:102E000040939B0150939C0160939D0170939E01A0
:102E10000C94A41241E050E060E070E004C0440F64
:102E2000551F661F771F8A95D2F74095509560957C
:102E3000709580919B0190919C01A0919D01B09112
:102E40009E01482359236A237B2340939B0150937F
:102E50009C0160939D0170939E010C94A41241E02B
:102E600050E060E070E004C0440F551F661F771FFC
:102E70008A95D2F780919B0190919C01A0919D0130
:102E8000B0919E01482759276A277B2740939B01D1
:102E900050939C0160939D0170939E010C94A41229
:102EA0000F931F9300919B0110919C0120919D0114
:102EB00030919E01DC01CB01802B912BA22BB32BF7
:102EC00080939B0190939C01A0939D01B0939E01E0
:102ED0001F910F910C94A4120F931F9300919B01CB
:102EE00010919C0120919D0130919E01DC01CB014C
:102EF00080239123A223B32380939B0190939C0171
:102F0000A0939D01B0939E011F910F910C94A41268
:102F10000F931F9300919B0110919C0120919D01A3
:102F200030919E01DC01CB0180279127A227B32796
:102F300080939B0190939C01A0939D01B0939E016F
:102F40001F910F910C94A4120895CF92DF92EF92EB
:102F5000FF920F931F93CF93DF938C01C0909F013B
:102F6000D090A001E090A101F090A20180919B017E
:102F700090919C01A0919D01B0919E01C82AD92AEF
:102F8000EA2AFB2ACFE1D0E0D701C6010C2E04C00B
:102F9000B695A795979587950A94D2F780FF06C0B6
:102FA000B8018C2F0E944407019721F4219760F704
:102FB00080E001C08C2FDF91CF911F910F91FF9086
:102FC000EF90DF90CF900895CF93DF93EC010E94B4
:102FD000A517BE010E944407DF91CF910895CB0150
:102FE0000E94E41708958091A301859585958595A4
:102FF00008958091A3018770089598E0899F9001BA
:103000001124262B2093A3010C94E9162091A301EF
:10301000809582238093A301982F977069F430E004
:10302000482F082E000C550B2417350729F08595DD
:10303000859585950C940A1708959091A301977032
:1030400081E009F480E0089590910C01992321F02A
:1030500090910D01911109C020910E0130910F0145
:10306000F90132969FEF40E01FC0982F96959695F4
:1030700096959F3050F5E0910E01F0910F01E90F08
:10308000F11D877021E030E0A90102C0440F551FF7
:103090008A95E2F7CA019181892B818308959F3F28
:1030A00039F04F5F4E3041F051915813F8CF0DC0B9
:1030B0005111F7CF942FF5CF9F3F39F0F901E90F68
:1030C000F11D97FDFA9582830895089590910C0162
:1030D000992321F090910D01911109C020910E01C9
:1030E00030910F01F9013296205F3F4F1FC0982F9A
:1030F0009695969596959F30F0F4E0910E01F0919B
:103100000F01E90FF11D877021E030E0A90102C035
:10311000440F551F8A95E2F7CA0180959181892352
:10312000818308953196E217F30729F0908198136F
:10313000F9CF1082F7CF089581E090E0E0910E0181
:10314000F0910F01E80FF91F10820196803191056F
:10315000A9F708959091B701892B8093B70108953D
:1031600080959091B70189238093B70108951092BB
:10317000B70108959091B601892B8093B601089507
:1031800080959091B60189238093B601089510929D
:10319000B60108959091B501892B8093B5010895EA
:1031A00080959091B50189238093B501089510927F
:1031B000B50108958093A40108951092A401089583
:1031C00080910E0190910F01FC0131969C01205FCE
:1031D0003F4F80E0919191118F5FE217F307D1F794
:1031E0000895E0910E01F0910F018091B701808365
:1031F000E0910E01F0910F0190818091B601892B31
:103200008083E0910E01F0910F0190818091B501D2
:10321000892B80838091A401882361F0E0910E01C5
:10322000F0910F019081892B80830E94E018811119
:103230001092A40180910E0190910F010C94BE0E8A
:1032400020E0009739F0AC014150510984239523C7
:103250002F5FF7CF822F08958091C201843039F11A
:103260001092B90120E488E190E00FB6F894A89597
:10327000809360000FBE2093600080E00E94DF0713
:1032800083B7817F846083BF83B7816083BF789475
:10329000889583B78E7F83BF0FB6F894A8958091E9
:1032A0006000886180936000109260000FBE0895F6
:1032B000089508950E9458190E943F030E945919C9
:1032C0000E94340491E0811101C090E0892F08959B
:1032D0000E94AC120E94B20E0C94DF071F920F9254
:1032E0000FB60F9211248F939F93AF93BF9380914A
:1032F000B901811113C08091BA019091BB01A091D5
:10330000BC01B091BD014196A11DB11D8093BA01D0
:103310009093BB01A093BC01B093BD01BF91AF914D
:103320009F918F910F900FBE0F901F90189582E084
:1033300084BD93E095BD9AEF97BD80936E0008958C
:103340002FB7F8948091BA019091BB01A091BC0174
:10335000B091BD012FBF0895CF92DF92EF92FF92FF
:103360000F931F932FB7F8944091BA015091BB016E
:103370006091BC017091BD012FBF6A017B01EE24F9
:10338000FF248C0120E030E0C016D106E206F306EF
:1033900010F4415051099A01281B390BC9011F91A2
:1033A0000F91FF90EF90DF90CF9008951F920F92B2
:1033B0000FB60F9211248F939F93AF93BF93809179
:1033C000BA019091BB01A091BC01B091BD010196E1
:1033D000A11DB11D8093BA019093BB01A093BC01C4
:1033E000B093BD01BF91AF919F918F910F900FBE90
:1033F0000F901F9018950E94AF0BF8942FEF87EA5B
:1034000091E6215080409040E1F700C0000087E045
:1034100090EBDC018093CC019093CD01A093CE0181
:10342000B093CF019CE088E10FB6F894A895809303
:1034300060000FBE90936000FFCF0E94521A81116E
:1034400002C00E94381A0E945D1A8093B8010E943F
:10345000651A8093CB0187FB882780F980930D0143
:103460000E94611A682F70E080E090E00C946C1666
:103470006DEE7EEF80E090E00E94A81A60E082E0AE
:1034800090E00E94961A60E083E090E00E94961A15
:1034900060E084E090E00E94961A60E085E090E0B1
:1034A0000C94961A80E090E00E94901A21E08D3EE4
:1034B0009E4F09F020E0822F089582E090E00C9466
:1034C000881A83E090E00C94881A84E090E00C94D1
:1034D000881A682F84E090E00C94961AAA1BBB1BF4
:1034E00051E107C0AA1FBB1FA617B70710F0A61B04
:1034F000B70B881F991F5A95A9F780959095BC0125
:10350000CD010895EE0FFF1F0590F491E02D099471
:10351000F999FECF92BD81BDF89A992780B508959B
:10352000A8E1B0E042E050E00C94B01A262FF999DF
:10353000FECF92BD81BDF89A019700B4021639F012
:103540001FBA20BD0FB6F894FA9AF99A0FBE0895E3
:103550000196272F0E94971A0C94961ADC01CB0132
:10356000FC01F999FECF06C0F2BDE1BDF89A319693
:1035700000B40D9241505040B8F70895F894FFCF31
:103580002002E1074D08E4071908E5070101A5013C
:00000001FF
